{
  "_format": "hh-sol-artifact-1",
  "contractName": "GeniusToken",
  "sourceName": "contracts/GeniusToken.sol",
  "abi": [
    {
      "inputs": [
        {
          "internalType": "address[]",
          "name": "_address",
          "type": "address[]"
        },
        {
          "internalType": "uint256[]",
          "name": "_amount",
          "type": "uint256[]"
        },
        {
          "internalType": "address",
          "name": "ownershipWallet",
          "type": "address"
        }
      ],
      "stateMutability": "nonpayable",
      "type": "constructor"
    },
    {
      "anonymous": false,
      "inputs": [
        {
          "indexed": true,
          "internalType": "address",
          "name": "owner",
          "type": "address"
        },
        {
          "indexed": true,
          "internalType": "address",
          "name": "spender",
          "type": "address"
        },
        {
          "indexed": false,
          "internalType": "uint256",
          "name": "value",
          "type": "uint256"
        }
      ],
      "name": "Approval",
      "type": "event"
    },
    {
      "anonymous": false,
      "inputs": [
        {
          "indexed": true,
          "internalType": "address",
          "name": "previousOwner",
          "type": "address"
        },
        {
          "indexed": true,
          "internalType": "address",
          "name": "newOwner",
          "type": "address"
        }
      ],
      "name": "OwnershipTransferred",
      "type": "event"
    },
    {
      "anonymous": false,
      "inputs": [
        {
          "indexed": true,
          "internalType": "address",
          "name": "from",
          "type": "address"
        },
        {
          "indexed": true,
          "internalType": "address",
          "name": "to",
          "type": "address"
        },
        {
          "indexed": false,
          "internalType": "uint256",
          "name": "value",
          "type": "uint256"
        }
      ],
      "name": "Transfer",
      "type": "event"
    },
    {
      "inputs": [
        {
          "internalType": "address",
          "name": "owner",
          "type": "address"
        },
        {
          "internalType": "address",
          "name": "spender",
          "type": "address"
        }
      ],
      "name": "allowance",
      "outputs": [
        {
          "internalType": "uint256",
          "name": "",
          "type": "uint256"
        }
      ],
      "stateMutability": "view",
      "type": "function"
    },
    {
      "inputs": [
        {
          "internalType": "address",
          "name": "spender",
          "type": "address"
        },
        {
          "internalType": "uint256",
          "name": "amount",
          "type": "uint256"
        }
      ],
      "name": "approve",
      "outputs": [
        {
          "internalType": "bool",
          "name": "",
          "type": "bool"
        }
      ],
      "stateMutability": "nonpayable",
      "type": "function"
    },
    {
      "inputs": [
        {
          "internalType": "address",
          "name": "account",
          "type": "address"
        }
      ],
      "name": "balanceOf",
      "outputs": [
        {
          "internalType": "uint256",
          "name": "",
          "type": "uint256"
        }
      ],
      "stateMutability": "view",
      "type": "function"
    },
    {
      "inputs": [
        {
          "internalType": "address",
          "name": "from",
          "type": "address"
        },
        {
          "internalType": "uint256",
          "name": "_amount",
          "type": "uint256"
        }
      ],
      "name": "burn",
      "outputs": [],
      "stateMutability": "nonpayable",
      "type": "function"
    },
    {
      "inputs": [],
      "name": "decimals",
      "outputs": [
        {
          "internalType": "uint8",
          "name": "",
          "type": "uint8"
        }
      ],
      "stateMutability": "pure",
      "type": "function"
    },
    {
      "inputs": [
        {
          "internalType": "address",
          "name": "spender",
          "type": "address"
        },
        {
          "internalType": "uint256",
          "name": "subtractedValue",
          "type": "uint256"
        }
      ],
      "name": "decreaseAllowance",
      "outputs": [
        {
          "internalType": "bool",
          "name": "",
          "type": "bool"
        }
      ],
      "stateMutability": "nonpayable",
      "type": "function"
    },
    {
      "inputs": [
        {
          "internalType": "address",
          "name": "spender",
          "type": "address"
        },
        {
          "internalType": "uint256",
          "name": "addedValue",
          "type": "uint256"
        }
      ],
      "name": "increaseAllowance",
      "outputs": [
        {
          "internalType": "bool",
          "name": "",
          "type": "bool"
        }
      ],
      "stateMutability": "nonpayable",
      "type": "function"
    },
    {
      "inputs": [],
      "name": "name",
      "outputs": [
        {
          "internalType": "string",
          "name": "",
          "type": "string"
        }
      ],
      "stateMutability": "view",
      "type": "function"
    },
    {
      "inputs": [],
      "name": "owner",
      "outputs": [
        {
          "internalType": "address",
          "name": "",
          "type": "address"
        }
      ],
      "stateMutability": "view",
      "type": "function"
    },
    {
      "inputs": [],
      "name": "renounceOwnership",
      "outputs": [],
      "stateMutability": "nonpayable",
      "type": "function"
    },
    {
      "inputs": [],
      "name": "symbol",
      "outputs": [
        {
          "internalType": "string",
          "name": "",
          "type": "string"
        }
      ],
      "stateMutability": "view",
      "type": "function"
    },
    {
      "inputs": [],
      "name": "totalSupply",
      "outputs": [
        {
          "internalType": "uint256",
          "name": "",
          "type": "uint256"
        }
      ],
      "stateMutability": "view",
      "type": "function"
    },
    {
      "inputs": [
        {
          "internalType": "address",
          "name": "to",
          "type": "address"
        },
        {
          "internalType": "uint256",
          "name": "amount",
          "type": "uint256"
        }
      ],
      "name": "transfer",
      "outputs": [
        {
          "internalType": "bool",
          "name": "",
          "type": "bool"
        }
      ],
      "stateMutability": "nonpayable",
      "type": "function"
    },
    {
      "inputs": [
        {
          "internalType": "address",
          "name": "from",
          "type": "address"
        },
        {
          "internalType": "address",
          "name": "to",
          "type": "address"
        },
        {
          "internalType": "uint256",
          "name": "amount",
          "type": "uint256"
        }
      ],
      "name": "transferFrom",
      "outputs": [
        {
          "internalType": "bool",
          "name": "",
          "type": "bool"
        }
      ],
      "stateMutability": "nonpayable",
      "type": "function"
    },
    {
      "inputs": [
        {
          "internalType": "address",
          "name": "newOwner",
          "type": "address"
        }
      ],
      "name": "transferOwnership",
      "outputs": [],
      "stateMutability": "nonpayable",
      "type": "function"
    }
  ],
  "bytecode": "0x60806040523480156200001157600080fd5b50604051620026583803806200265883398181016040528101906200003791906200087a565b6040518060400160405280601481526020017f47656e697573456475636174696f6e4d657269740000000000000000000000008152506040518060400160405280600481526020017f4747454d000000000000000000000000000000000000000000000000000000008152508160039080519060200190620000bb92919062000658565b508060049080519060200190620000d492919062000658565b505050620000f7620000eb6200040760201b60201c565b6200040f60201b60201c565b62000108816200040f60201b60201c565b620001bf8360008151811062000147577f4e487b7100000000000000000000000000000000000000000000000000000000600052603260045260246000fd5b60200260200101516305f5e100620f42408560008151811062000193577f4e487b7100000000000000000000000000000000000000000000000000000000600052603260045260246000fd5b6020026020010151620001a7919062000a6e565b620001b3919062000a6e565b620004d560201b60201c565b6200027683600181518110620001fe577f4e487b7100000000000000000000000000000000000000000000000000000000600052603260045260246000fd5b60200260200101516305f5e100620f4240856001815181106200024a577f4e487b7100000000000000000000000000000000000000000000000000000000600052603260045260246000fd5b60200260200101516200025e919062000a6e565b6200026a919062000a6e565b620004d560201b60201c565b6200032d83600281518110620002b5577f4e487b7100000000000000000000000000000000000000000000000000000000600052603260045260246000fd5b60200260200101516305f5e100620f42408560028151811062000301577f4e487b7100000000000000000000000000000000000000000000000000000000600052603260045260246000fd5b602002602001015162000315919062000a6e565b62000321919062000a6e565b620004d560201b60201c565b620003e4836003815181106200036c577f4e487b7100000000000000000000000000000000000000000000000000000000600052603260045260246000fd5b60200260200101516305f5e100620f424085600381518110620003b8577f4e487b7100000000000000000000000000000000000000000000000000000000600052603260045260246000fd5b6020026020010151620003cc919062000a6e565b620003d8919062000a6e565b620004d560201b60201c565b620003fe3367018d3181f5e38000620004d560201b60201c565b50505062000c74565b600033905090565b6000600560009054906101000a900473ffffffffffffffffffffffffffffffffffffffff16905081600560006101000a81548173ffffffffffffffffffffffffffffffffffffffff021916908373ffffffffffffffffffffffffffffffffffffffff1602179055508173ffffffffffffffffffffffffffffffffffffffff168173ffffffffffffffffffffffffffffffffffffffff167f8be0079c531659141344cd1fd0a4f28419497f9722a3daafe3b4186f6b6457e060405160405180910390a35050565b600073ffffffffffffffffffffffffffffffffffffffff168273ffffffffffffffffffffffffffffffffffffffff16141562000548576040517f08c379a00000000000000000000000000000000000000000000000000000000081526004016200053f906200093a565b60405180910390fd5b6200055c600083836200064e60201b60201c565b806002600082825462000570919062000a11565b92505081905550806000808473ffffffffffffffffffffffffffffffffffffffff1673ffffffffffffffffffffffffffffffffffffffff1681526020019081526020016000206000828254620005c7919062000a11565b925050819055508173ffffffffffffffffffffffffffffffffffffffff16600073ffffffffffffffffffffffffffffffffffffffff167fddf252ad1be2c89b69c2b068fc378daa952ba7f163c4a11628f55a4df523b3ef836040516200062e91906200095c565b60405180910390a36200064a600083836200065360201b60201c565b5050565b505050565b505050565b828054620006669062000b0d565b90600052602060002090601f0160209004810192826200068a5760008555620006d6565b82601f10620006a557805160ff1916838001178555620006d6565b82800160010185558215620006d6579182015b82811115620006d5578251825591602001919060010190620006b8565b5b509050620006e59190620006e9565b5090565b5b8082111562000704576000816000905550600101620006ea565b5090565b60006200071f6200071984620009a2565b62000979565b905080838252602082019050828560208602820111156200073f57600080fd5b60005b85811015620007735781620007588882620007f2565b84526020840193506020830192505060018101905062000742565b5050509392505050565b6000620007946200078e84620009d1565b62000979565b90508083825260208201905082856020860282011115620007b457600080fd5b60005b85811015620007e85781620007cd888262000863565b845260208401935060208301925050600181019050620007b7565b5050509392505050565b600081519050620008038162000c40565b92915050565b600082601f8301126200081b57600080fd5b81516200082d84826020860162000708565b91505092915050565b600082601f8301126200084857600080fd5b81516200085a8482602086016200077d565b91505092915050565b600081519050620008748162000c5a565b92915050565b6000806000606084860312156200089057600080fd5b600084015167ffffffffffffffff811115620008ab57600080fd5b620008b98682870162000809565b935050602084015167ffffffffffffffff811115620008d757600080fd5b620008e58682870162000836565b9250506040620008f886828701620007f2565b9150509250925092565b600062000911601f8362000a00565b91506200091e8262000c17565b602082019050919050565b620009348162000b03565b82525050565b60006020820190508181036000830152620009558162000902565b9050919050565b600060208201905062000973600083018462000929565b92915050565b60006200098562000998565b905062000993828262000b43565b919050565b6000604051905090565b600067ffffffffffffffff821115620009c057620009bf62000bd7565b5b602082029050602081019050919050565b600067ffffffffffffffff821115620009ef57620009ee62000bd7565b5b602082029050602081019050919050565b600082825260208201905092915050565b600062000a1e8262000b03565b915062000a2b8362000b03565b9250827fffffffffffffffffffffffffffffffffffffffffffffffffffffffffffffffff0382111562000a635762000a6262000b79565b5b828201905092915050565b600062000a7b8262000b03565b915062000a888362000b03565b9250817fffffffffffffffffffffffffffffffffffffffffffffffffffffffffffffffff048311821515161562000ac45762000ac362000b79565b5b828202905092915050565b600062000adc8262000ae3565b9050919050565b600073ffffffffffffffffffffffffffffffffffffffff82169050919050565b6000819050919050565b6000600282049050600182168062000b2657607f821691505b6020821081141562000b3d5762000b3c62000ba8565b5b50919050565b62000b4e8262000c06565b810181811067ffffffffffffffff8211171562000b705762000b6f62000bd7565b5b80604052505050565b7f4e487b7100000000000000000000000000000000000000000000000000000000600052601160045260246000fd5b7f4e487b7100000000000000000000000000000000000000000000000000000000600052602260045260246000fd5b7f4e487b7100000000000000000000000000000000000000000000000000000000600052604160045260246000fd5b6000601f19601f8301169050919050565b7f45524332303a206d696e7420746f20746865207a65726f206164647265737300600082015250565b62000c4b8162000acf565b811462000c5757600080fd5b50565b62000c658162000b03565b811462000c7157600080fd5b50565b6119d48062000c846000396000f3fe608060405234801561001057600080fd5b50600436106100f55760003560e01c8063715018a611610097578063a457c2d711610066578063a457c2d714610276578063a9059cbb146102a6578063dd62ed3e146102d6578063f2fde38b14610306576100f5565b8063715018a6146102145780638da5cb5b1461021e57806395d89b411461023c5780639dc29fac1461025a576100f5565b806323b872dd116100d357806323b872dd14610166578063313ce5671461019657806339509351146101b457806370a08231146101e4576100f5565b806306fdde03146100fa578063095ea7b31461011857806318160ddd14610148575b600080fd5b610102610322565b60405161010f91906112d0565b60405180910390f35b610132600480360381019061012d9190611068565b6103b4565b60405161013f91906112b5565b60405180910390f35b6101506103d7565b60405161015d9190611452565b60405180910390f35b610180600480360381019061017b9190611019565b6103e1565b60405161018d91906112b5565b60405180910390f35b61019e610410565b6040516101ab919061146d565b60405180910390f35b6101ce60048036038101906101c99190611068565b610419565b6040516101db91906112b5565b60405180910390f35b6101fe60048036038101906101f99190610fb4565b610450565b60405161020b9190611452565b60405180910390f35b61021c610498565b005b610226610520565b604051610233919061129a565b60405180910390f35b61024461054a565b60405161025191906112d0565b60405180910390f35b610274600480360381019061026f9190611068565b6105dc565b005b610290600480360381019061028b9190611068565b6105ea565b60405161029d91906112b5565b60405180910390f35b6102c060048036038101906102bb9190611068565b610661565b6040516102cd91906112b5565b60405180910390f35b6102f060048036038101906102eb9190610fdd565b610684565b6040516102fd9190611452565b60405180910390f35b610320600480360381019061031b9190610fb4565b61070b565b005b606060038054610331906115b6565b80601f016020809104026020016040519081016040528092919081815260200182805461035d906115b6565b80156103aa5780601f1061037f576101008083540402835291602001916103aa565b820191906000526020600020905b81548152906001019060200180831161038d57829003601f168201915b5050505050905090565b6000806103bf610803565b90506103cc81858561080b565b600191505092915050565b6000600254905090565b6000806103ec610803565b90506103f98582856109d6565b610404858585610a62565b60019150509392505050565b60006008905090565b600080610424610803565b90506104458185856104368589610684565b61044091906114a4565b61080b565b600191505092915050565b60008060008373ffffffffffffffffffffffffffffffffffffffff1673ffffffffffffffffffffffffffffffffffffffff168152602001908152602001600020549050919050565b6104a0610803565b73ffffffffffffffffffffffffffffffffffffffff166104be610520565b73ffffffffffffffffffffffffffffffffffffffff1614610514576040517f08c379a000000000000000000000000000000000000000000000000000000000815260040161050b906113b2565b60405180910390fd5b61051e6000610ce3565b565b6000600560009054906101000a900473ffffffffffffffffffffffffffffffffffffffff16905090565b606060048054610559906115b6565b80601f0160208091040260200160405190810160405280929190818152602001828054610585906115b6565b80156105d25780601f106105a7576101008083540402835291602001916105d2565b820191906000526020600020905b8154815290600101906020018083116105b557829003601f168201915b5050505050905090565b6105e68282610da9565b5050565b6000806105f5610803565b905060006106038286610684565b905083811015610648576040517f08c379a000000000000000000000000000000000000000000000000000000000815260040161063f90611432565b60405180910390fd5b610655828686840361080b565b60019250505092915050565b60008061066c610803565b9050610679818585610a62565b600191505092915050565b6000600160008473ffffffffffffffffffffffffffffffffffffffff1673ffffffffffffffffffffffffffffffffffffffff16815260200190815260200160002060008373ffffffffffffffffffffffffffffffffffffffff1673ffffffffffffffffffffffffffffffffffffffff16815260200190815260200160002054905092915050565b610713610803565b73ffffffffffffffffffffffffffffffffffffffff16610731610520565b73ffffffffffffffffffffffffffffffffffffffff1614610787576040517f08c379a000000000000000000000000000000000000000000000000000000000815260040161077e906113b2565b60405180910390fd5b600073ffffffffffffffffffffffffffffffffffffffff168173ffffffffffffffffffffffffffffffffffffffff1614156107f7576040517f08c379a00000000000000000000000000000000000000000000000000000000081526004016107ee90611332565b60405180910390fd5b61080081610ce3565b50565b600033905090565b600073ffffffffffffffffffffffffffffffffffffffff168373ffffffffffffffffffffffffffffffffffffffff16141561087b576040517f08c379a000000000000000000000000000000000000000000000000000000000815260040161087290611412565b60405180910390fd5b600073ffffffffffffffffffffffffffffffffffffffff168273ffffffffffffffffffffffffffffffffffffffff1614156108eb576040517f08c379a00000000000000000000000000000000000000000000000000000000081526004016108e290611352565b60405180910390fd5b80600160008573ffffffffffffffffffffffffffffffffffffffff1673ffffffffffffffffffffffffffffffffffffffff16815260200190815260200160002060008473ffffffffffffffffffffffffffffffffffffffff1673ffffffffffffffffffffffffffffffffffffffff168152602001908152602001600020819055508173ffffffffffffffffffffffffffffffffffffffff168373ffffffffffffffffffffffffffffffffffffffff167f8c5be1e5ebec7d5bd14f71427d1e84f3dd0314c0f7b2291e5b200ac8c7c3b925836040516109c99190611452565b60405180910390a3505050565b60006109e28484610684565b90507fffffffffffffffffffffffffffffffffffffffffffffffffffffffffffffffff8114610a5c5781811015610a4e576040517f08c379a0000000000000000000000000000000000000000000000000000000008152600401610a4590611372565b60405180910390fd5b610a5b848484840361080b565b5b50505050565b600073ffffffffffffffffffffffffffffffffffffffff168373ffffffffffffffffffffffffffffffffffffffff161415610ad2576040517f08c379a0000000000000000000000000000000000000000000000000000000008152600401610ac9906113f2565b60405180910390fd5b600073ffffffffffffffffffffffffffffffffffffffff168273ffffffffffffffffffffffffffffffffffffffff161415610b42576040517f08c379a0000000000000000000000000000000000000000000000000000000008152600401610b39906112f2565b60405180910390fd5b610b4d838383610f80565b60008060008573ffffffffffffffffffffffffffffffffffffffff1673ffffffffffffffffffffffffffffffffffffffff16815260200190815260200160002054905081811015610bd3576040517f08c379a0000000000000000000000000000000000000000000000000000000008152600401610bca90611392565b60405180910390fd5b8181036000808673ffffffffffffffffffffffffffffffffffffffff1673ffffffffffffffffffffffffffffffffffffffff16815260200190815260200160002081905550816000808573ffffffffffffffffffffffffffffffffffffffff1673ffffffffffffffffffffffffffffffffffffffff1681526020019081526020016000206000828254610c6691906114a4565b925050819055508273ffffffffffffffffffffffffffffffffffffffff168473ffffffffffffffffffffffffffffffffffffffff167fddf252ad1be2c89b69c2b068fc378daa952ba7f163c4a11628f55a4df523b3ef84604051610cca9190611452565b60405180910390a3610cdd848484610f85565b50505050565b6000600560009054906101000a900473ffffffffffffffffffffffffffffffffffffffff16905081600560006101000a81548173ffffffffffffffffffffffffffffffffffffffff021916908373ffffffffffffffffffffffffffffffffffffffff1602179055508173ffffffffffffffffffffffffffffffffffffffff168173ffffffffffffffffffffffffffffffffffffffff167f8be0079c531659141344cd1fd0a4f28419497f9722a3daafe3b4186f6b6457e060405160405180910390a35050565b600073ffffffffffffffffffffffffffffffffffffffff168273ffffffffffffffffffffffffffffffffffffffff161415610e19576040517f08c379a0000000000000000000000000000000000000000000000000000000008152600401610e10906113d2565b60405180910390fd5b610e2582600083610f80565b60008060008473ffffffffffffffffffffffffffffffffffffffff1673ffffffffffffffffffffffffffffffffffffffff16815260200190815260200160002054905081811015610eab576040517f08c379a0000000000000000000000000000000000000000000000000000000008152600401610ea290611312565b60405180910390fd5b8181036000808573ffffffffffffffffffffffffffffffffffffffff1673ffffffffffffffffffffffffffffffffffffffff168152602001908152602001600020819055508160026000828254610f0291906114fa565b92505081905550600073ffffffffffffffffffffffffffffffffffffffff168373ffffffffffffffffffffffffffffffffffffffff167fddf252ad1be2c89b69c2b068fc378daa952ba7f163c4a11628f55a4df523b3ef84604051610f679190611452565b60405180910390a3610f7b83600084610f85565b505050565b505050565b505050565b600081359050610f9981611970565b92915050565b600081359050610fae81611987565b92915050565b600060208284031215610fc657600080fd5b6000610fd484828501610f8a565b91505092915050565b60008060408385031215610ff057600080fd5b6000610ffe85828601610f8a565b925050602061100f85828601610f8a565b9150509250929050565b60008060006060848603121561102e57600080fd5b600061103c86828701610f8a565b935050602061104d86828701610f8a565b925050604061105e86828701610f9f565b9150509250925092565b6000806040838503121561107b57600080fd5b600061108985828601610f8a565b925050602061109a85828601610f9f565b9150509250929050565b6110ad8161152e565b82525050565b6110bc81611540565b82525050565b60006110cd82611488565b6110d78185611493565b93506110e7818560208601611583565b6110f081611646565b840191505092915050565b6000611108602383611493565b915061111382611657565b604082019050919050565b600061112b602283611493565b9150611136826116a6565b604082019050919050565b600061114e602683611493565b9150611159826116f5565b604082019050919050565b6000611171602283611493565b915061117c82611744565b604082019050919050565b6000611194601d83611493565b915061119f82611793565b602082019050919050565b60006111b7602683611493565b91506111c2826117bc565b604082019050919050565b60006111da602083611493565b91506111e58261180b565b602082019050919050565b60006111fd602183611493565b915061120882611834565b604082019050919050565b6000611220602583611493565b915061122b82611883565b604082019050919050565b6000611243602483611493565b915061124e826118d2565b604082019050919050565b6000611266602583611493565b915061127182611921565b604082019050919050565b6112858161156c565b82525050565b61129481611576565b82525050565b60006020820190506112af60008301846110a4565b92915050565b60006020820190506112ca60008301846110b3565b92915050565b600060208201905081810360008301526112ea81846110c2565b905092915050565b6000602082019050818103600083015261130b816110fb565b9050919050565b6000602082019050818103600083015261132b8161111e565b9050919050565b6000602082019050818103600083015261134b81611141565b9050919050565b6000602082019050818103600083015261136b81611164565b9050919050565b6000602082019050818103600083015261138b81611187565b9050919050565b600060208201905081810360008301526113ab816111aa565b9050919050565b600060208201905081810360008301526113cb816111cd565b9050919050565b600060208201905081810360008301526113eb816111f0565b9050919050565b6000602082019050818103600083015261140b81611213565b9050919050565b6000602082019050818103600083015261142b81611236565b9050919050565b6000602082019050818103600083015261144b81611259565b9050919050565b6000602082019050611467600083018461127c565b92915050565b6000602082019050611482600083018461128b565b92915050565b600081519050919050565b600082825260208201905092915050565b60006114af8261156c565b91506114ba8361156c565b9250827fffffffffffffffffffffffffffffffffffffffffffffffffffffffffffffffff038211156114ef576114ee6115e8565b5b828201905092915050565b60006115058261156c565b91506115108361156c565b925082821015611523576115226115e8565b5b828203905092915050565b60006115398261154c565b9050919050565b60008115159050919050565b600073ffffffffffffffffffffffffffffffffffffffff82169050919050565b6000819050919050565b600060ff82169050919050565b60005b838110156115a1578082015181840152602081019050611586565b838111156115b0576000848401525b50505050565b600060028204905060018216806115ce57607f821691505b602082108114156115e2576115e1611617565b5b50919050565b7f4e487b7100000000000000000000000000000000000000000000000000000000600052601160045260246000fd5b7f4e487b7100000000000000000000000000000000000000000000000000000000600052602260045260246000fd5b6000601f19601f8301169050919050565b7f45524332303a207472616e7366657220746f20746865207a65726f206164647260008201527f6573730000000000000000000000000000000000000000000000000000000000602082015250565b7f45524332303a206275726e20616d6f756e7420657863656564732062616c616e60008201527f6365000000000000000000000000000000000000000000000000000000000000602082015250565b7f4f776e61626c653a206e6577206f776e657220697320746865207a65726f206160008201527f6464726573730000000000000000000000000000000000000000000000000000602082015250565b7f45524332303a20617070726f766520746f20746865207a65726f20616464726560008201527f7373000000000000000000000000000000000000000000000000000000000000602082015250565b7f45524332303a20696e73756666696369656e7420616c6c6f77616e6365000000600082015250565b7f45524332303a207472616e7366657220616d6f756e742065786365656473206260008201527f616c616e63650000000000000000000000000000000000000000000000000000602082015250565b7f4f776e61626c653a2063616c6c6572206973206e6f7420746865206f776e6572600082015250565b7f45524332303a206275726e2066726f6d20746865207a65726f2061646472657360008201527f7300000000000000000000000000000000000000000000000000000000000000602082015250565b7f45524332303a207472616e736665722066726f6d20746865207a65726f20616460008201527f6472657373000000000000000000000000000000000000000000000000000000602082015250565b7f45524332303a20617070726f76652066726f6d20746865207a65726f2061646460008201527f7265737300000000000000000000000000000000000000000000000000000000602082015250565b7f45524332303a2064656372656173656420616c6c6f77616e63652062656c6f7760008201527f207a65726f000000000000000000000000000000000000000000000000000000602082015250565b6119798161152e565b811461198457600080fd5b50565b6119908161156c565b811461199b57600080fd5b5056fea2646970667358221220baea67311c75654a6162c8e77527525caa03664bc534478a7196b6f017d2e2af64736f6c63430008040033",
  "linkReferences": {},
  "deployedLinkReferences": {}
}